:107C0000112484B714BE81FF08D185E080938100E0
:107C100088E88093CC0080E190E09093CE00809340
:107C2000CD008FE08093C80088E1809360008EE0F3
:107C300080936000279A82E020E33CEF91E001C04E
:107C400081E0309385002093840096BBB09BFECFEB
:107C50001F9AA8958130A1F7612C712C08E138E0BA
:107C6000F32EEE24E39445E0D42E51E1C52E13E02B
:107C7000ADD0813489F4AAD08983B6D08981823885
:107C800019F484E09CD098C0813819F484E097D02E
:107C900093C083E094D090C0823419F484E1B0D0D2
:107CA0008BC0853419F485E0ABD086C0853551F49E
:107CB0008DD0B82E8BD06B2C712C782A660C771C4B
:107CC00093D07AC0863529F484E09AD080E077D0CA
:107CD00073C0843609F043C079D078D0982E76D01E
:107CE000611480E7780638F4F30117BFE895A12CFA
:107CF000BB24B39403C0A12CBB24B39467D0F5017B
:107D000081935F019E12FACF6114F0E77F0618F0AD
:107D1000F30117BFE89568D007B600FCFDCFA301BB
:107D2000A0E0B1E08C9112969D0121503109F9013A
:107D3000208190E0922BFA010C01E7BEE895112416
:107D40004E5F5F4FA038F1E0BF0761F7F301D7BE88
:107D5000E89507B600FCFDCFC7BEE8952DC0843777
:107D6000C1F434D033D0982E31D03ED0F301862CDC
:107D7000890C5F018FEFA81AB80A849120D0F50111
:107D80008A10F7CFEFEF6E1A7E0A9A94690C711C75
:107D900013C0853741F428D08EE111D085E90FD08A
:107DA00084E80DD009C0813531F400936000F09271
:107DB00060001AD001C018D080E101D059CF909155
:107DC000C90094FDFCCF8093D20008951F9A809142
:107DD000C90080FFFCCF8091C90083FD01C0A89538
:107DE0001F9A8091D2000895F1DF803239F088E146
:107DF0008093600088E080936000FFCF84E1DFCF54
:107E0000CF93C82FE3DFC150E9F7CF91EDCFE0E684
:107E1000F0E098E1908380830895E0E6F0E088E167
:0A7E200080831082EE27FF270994EB
:027FFE00040479
:0400000300007C007D
:00000001FF
